{
  "contractName": "Licitaciones",
  "abi": [
    {
      "constant": true,
      "inputs": [],
      "name": "licitacionesCount",
      "outputs": [
        {
          "internalType": "uint256",
          "name": "",
          "type": "uint256"
        }
      ],
      "payable": false,
      "stateMutability": "view",
      "type": "function"
    }
  ],
  "bytecode": "0x608060405260008055348015601357600080fd5b506080806100226000396000f3fe6080604052348015600f57600080fd5b506004361060285760003560e01c80631722249f14602d575b600080fd5b60336045565b60408051918252519081900360200190f35b6000548156fea265627a7a723158203660d97942fa9c947a9b902949f8d186df7f406f13e93c6c608a82fe7cf6e4a964736f6c63430005100032",
  "source": "pragma solidity >=0.5.16 <0.9.0;\r\n\r\ncontract Licitaciones{\r\n    uint public licitacionesCount=0;\r\n}",
  "sourcePath": "D:\\workspace\\tfg-licitaciones\\contracts\\Licitaciones.sol",
  "compiler": {
    "name": "solc",
    "version": "0.5.16+commit.9c3226ce.Emscripten.clang"
  },
  "schemaVersion": "3.4.7",
  "updatedAt": "2022-04-14T20:02:50.874Z",
  "networkType": "ethereum",
  "devdoc": {
    "methods": {}
  },
  "userdoc": {
    "methods": {}
  }
}