{
  "contractName": "Licitaciones",
  "abi": [
    {
      "inputs": [],
      "payable": false,
      "stateMutability": "nonpayable",
      "type": "constructor"
    },
    {
      "anonymous": false,
      "inputs": [
        {
          "indexed": false,
          "internalType": "uint256",
          "name": "id",
          "type": "uint256"
        },
        {
          "indexed": false,
          "internalType": "string",
          "name": "idExpediente",
          "type": "string"
        },
        {
          "indexed": false,
          "internalType": "string",
          "name": "disposicion",
          "type": "string"
        },
        {
          "indexed": false,
          "internalType": "uint256",
          "name": "timestamp",
          "type": "uint256"
        }
      ],
      "name": "AdjudicacionCreated",
      "type": "event"
    },
    {
      "anonymous": false,
      "inputs": [
        {
          "indexed": false,
          "internalType": "uint256",
          "name": "id",
          "type": "uint256"
        },
        {
          "indexed": false,
          "internalType": "string",
          "name": "idExpediente",
          "type": "string"
        },
        {
          "indexed": false,
          "internalType": "string",
          "name": "pbcg",
          "type": "string"
        },
        {
          "indexed": false,
          "internalType": "string",
          "name": "pbcp",
          "type": "string"
        },
        {
          "indexed": false,
          "internalType": "string",
          "name": "dipbcg",
          "type": "string"
        },
        {
          "indexed": false,
          "internalType": "string",
          "name": "dipbcp",
          "type": "string"
        },
        {
          "indexed": false,
          "internalType": "uint256",
          "name": "timestamp",
          "type": "uint256"
        }
      ],
      "name": "PublicacionCreated",
      "type": "event"
    },
    {
      "anonymous": false,
      "inputs": [
        {
          "indexed": false,
          "internalType": "uint256",
          "name": "id",
          "type": "uint256"
        },
        {
          "indexed": false,
          "internalType": "string",
          "name": "idExpediente",
          "type": "string"
        },
        {
          "indexed": false,
          "internalType": "string",
          "name": "convenio",
          "type": "string"
        },
        {
          "indexed": false,
          "internalType": "string",
          "name": "garantia",
          "type": "string"
        },
        {
          "indexed": false,
          "internalType": "uint256",
          "name": "timestamp",
          "type": "uint256"
        }
      ],
      "name": "SuscripcionCreated",
      "type": "event"
    },
    {
      "constant": true,
      "inputs": [],
      "name": "adjudicacionCount",
      "outputs": [
        {
          "internalType": "uint256",
          "name": "",
          "type": "uint256"
        }
      ],
      "payable": false,
      "stateMutability": "view",
      "type": "function"
    },
    {
      "constant": true,
      "inputs": [
        {
          "internalType": "uint256",
          "name": "",
          "type": "uint256"
        }
      ],
      "name": "adjudicaciones",
      "outputs": [
        {
          "internalType": "uint256",
          "name": "id",
          "type": "uint256"
        },
        {
          "internalType": "string",
          "name": "idExpediente",
          "type": "string"
        },
        {
          "internalType": "string",
          "name": "disposicion",
          "type": "string"
        },
        {
          "internalType": "uint256",
          "name": "timestamp",
          "type": "uint256"
        }
      ],
      "payable": false,
      "stateMutability": "view",
      "type": "function"
    },
    {
      "constant": true,
      "inputs": [],
      "name": "publicacionCount",
      "outputs": [
        {
          "internalType": "uint256",
          "name": "",
          "type": "uint256"
        }
      ],
      "payable": false,
      "stateMutability": "view",
      "type": "function"
    },
    {
      "constant": true,
      "inputs": [
        {
          "internalType": "uint256",
          "name": "",
          "type": "uint256"
        }
      ],
      "name": "publicaciones",
      "outputs": [
        {
          "internalType": "uint256",
          "name": "id",
          "type": "uint256"
        },
        {
          "internalType": "string",
          "name": "idExpediente",
          "type": "string"
        },
        {
          "internalType": "string",
          "name": "pbcg",
          "type": "string"
        },
        {
          "internalType": "string",
          "name": "pbcp",
          "type": "string"
        },
        {
          "internalType": "string",
          "name": "dipbcg",
          "type": "string"
        },
        {
          "internalType": "string",
          "name": "dipbcp",
          "type": "string"
        },
        {
          "internalType": "uint256",
          "name": "timestamp",
          "type": "uint256"
        }
      ],
      "payable": false,
      "stateMutability": "view",
      "type": "function"
    },
    {
      "constant": true,
      "inputs": [],
      "name": "suscripcionCount",
      "outputs": [
        {
          "internalType": "uint256",
          "name": "",
          "type": "uint256"
        }
      ],
      "payable": false,
      "stateMutability": "view",
      "type": "function"
    },
    {
      "constant": true,
      "inputs": [
        {
          "internalType": "uint256",
          "name": "",
          "type": "uint256"
        }
      ],
      "name": "suscripciones",
      "outputs": [
        {
          "internalType": "uint256",
          "name": "id",
          "type": "uint256"
        },
        {
          "internalType": "string",
          "name": "idExpediente",
          "type": "string"
        },
        {
          "internalType": "string",
          "name": "convenio",
          "type": "string"
        },
        {
          "internalType": "string",
          "name": "garantia",
          "type": "string"
        },
        {
          "internalType": "uint256",
          "name": "timestamp",
          "type": "uint256"
        }
      ],
      "payable": false,
      "stateMutability": "view",
      "type": "function"
    },
    {
      "constant": false,
      "inputs": [
        {
          "internalType": "string",
          "name": "_idExpediente",
          "type": "string"
        },
        {
          "internalType": "string",
          "name": "_pbcg",
          "type": "string"
        },
        {
          "internalType": "string",
          "name": "_pbcp",
          "type": "string"
        },
        {
          "internalType": "string",
          "name": "_dipbcg",
          "type": "string"
        },
        {
          "internalType": "string",
          "name": "_dipbcp",
          "type": "string"
        }
      ],
      "name": "createPublicacion",
      "outputs": [],
      "payable": false,
      "stateMutability": "nonpayable",
      "type": "function"
    },
    {
      "constant": false,
      "inputs": [
        {
          "internalType": "string",
          "name": "_idExpediente",
          "type": "string"
        },
        {
          "internalType": "string",
          "name": "_convenio",
          "type": "string"
        },
        {
          "internalType": "string",
          "name": "_garantia",
          "type": "string"
        }
      ],
      "name": "createSuscripcion",
      "outputs": [],
      "payable": false,
      "stateMutability": "nonpayable",
      "type": "function"
    },
    {
      "constant": false,
      "inputs": [
        {
          "internalType": "string",
          "name": "_idExpediente",
          "type": "string"
        },
        {
          "internalType": "string",
          "name": "_disposicion",
          "type": "string"
        }
      ],
      "name": "createAdjudicacion",
      "outputs": [],
      "payable": false,
      "stateMutability": "nonpayable",
      "type": "function"
    }
  ],
  "bytecode": "0x608060405260008055600060015560006002553480156200001f57600080fd5b50620000e96040518060400160405280600c81526020016b45452d5072756562612d303160a01b8152506040518060400160405280600b81526020016a7072756562612d7062636760a81b8152506040518060400160405280600b81526020016a07072756562612d706263760ac1b8152506040518060400160405280600d81526020016c7072756562612d64697062636760981b8152506040518060400160405280600d81526020016c07072756562612d64697062637609c1b815250620001cb60201b60201c565b6200016e6040518060400160405280600c81526020016b45452d5072756562612d303160a01b8152506040518060400160405280600f81526020016e7072756562612d636f6e76656e696f60881b8152506040518060400160405280600f81526020016e7072756562612d676172616e74696160881b8152506200051960201b60201c565b620001c56040518060400160405280600c81526020016b45452d5072756562612d303160a01b815250604051806040016040528060098152602001687072756562612d646960b81b8152506200074a60201b60201c565b6200098b565b6000805460019081018083556040805160e08101825282815260208082018b81528284018b9052606083018a90526080830189905260a083018890524260c08401529386526003815291909420845181559151805192936200023693908501929190910190620008e6565b506040820151805162000254916002840191602090910190620008e6565b506060820151805162000272916003840191602090910190620008e6565b506080820151805162000290916004840191602090910190620008e6565b5060a08201518051620002ae916005840191602090910190620008e6565b5060c082015181600601559050507fb23a44ea66b4e7b517f362c2cfc57aa871fcdfc7482fd5ecb1aad2a9c6bef96360005486868686864260405180888152602001806020018060200180602001806020018060200187815260200186810386528c818151815260200191508051906020019080838360005b838110156200034157818101518382015260200162000327565b50505050905090810190601f1680156200036f5780820380516001836020036101000a031916815260200191505b5086810385528b5181528b516020918201918d019080838360005b83811015620003a45781810151838201526020016200038a565b50505050905090810190601f168015620003d25780820380516001836020036101000a031916815260200191505b5086810384528a5181528a516020918201918c019080838360005b8381101562000407578181015183820152602001620003ed565b50505050905090810190601f168015620004355780820380516001836020036101000a031916815260200191505b5086810383528951815289516020918201918b019080838360005b838110156200046a57818101518382015260200162000450565b50505050905090810190601f168015620004985780820380516001836020036101000a031916815260200191505b5086810382528851815288516020918201918a019080838360005b83811015620004cd578181015183820152602001620004b3565b50505050905090810190601f168015620004fb5780820380516001836020036101000a031916815260200191505b509c5050505050505050505050505060405180910390a15050505050565b600280546001908101918290556040805160a08101825283815260208082018881528284018890526060830187905242608084015260009586526005825292909420815181559151805191949293620005799390850192910190620008e6565b506040820151805162000597916002840191602090910190620008e6565b5060608201518051620005b5916003840191602090910190620008e6565b50608082015181600401559050507f77e3d3bb8dda62e43e54d0483f4dc83e423ac45e13a6e784ec8f0c8539b76c556002548484844260405180868152602001806020018060200180602001858152602001848103845288818151815260200191508051906020019080838360005b838110156200063e57818101518382015260200162000624565b50505050905090810190601f1680156200066c5780820380516001836020036101000a031916815260200191505b50848103835287518152875160209182019189019080838360005b83811015620006a157818101518382015260200162000687565b50505050905090810190601f168015620006cf5780820380516001836020036101000a031916815260200191505b50848103825286518152865160209182019188019080838360005b8381101562000704578181015183820152602001620006ea565b50505050905090810190601f168015620007325780820380516001836020036101000a031916815260200191505b509850505050505050505060405180910390a1505050565b600180548101808255604080516080810182528281526020808201878152828401879052426060840152600094855260048252929093208151815591518051919492936200079e93850192910190620008e6565b5060408201518051620007bc916002840191602090910190620008e6565b50606082015181600301559050507fc9a8f167d152087785281ce637eff30b0a27a6eebfb59f2559fbbc836ec9ad2f600154838342604051808581526020018060200180602001848152602001838103835286818151815260200191508051906020019080838360005b838110156200084057818101518382015260200162000826565b50505050905090810190601f1680156200086e5780820380516001836020036101000a031916815260200191505b50838103825285518152855160209182019187019080838360005b83811015620008a357818101518382015260200162000889565b50505050905090810190601f168015620008d15780820380516001836020036101000a031916815260200191505b50965050505050505060405180910390a15050565b828054600181600116156101000203166002900490600052602060002090601f016020900481019282601f106200092957805160ff191683800117855562000959565b8280016001018555821562000959579182015b82811115620009595782518255916020019190600101906200093c565b50620009679291506200096b565b5090565b6200098891905b8082111562000967576000815560010162000972565b90565b6118ce806200099b6000396000f3fe608060405234801561001057600080fd5b50600436106100935760003560e01c80639549c361116100665780639549c36114610231578063967a9d6e146104eb578063aa9deef714610699578063acb9cca2146107a2578063bfe7dbf3146108cb57610093565b80632c55bcce1461009857806334d2995f146100b25780633dbf667c146100ba5780633f1b116c14610229575b600080fd5b6100a0610b06565b60408051918252519081900360200190f35b6100a0610b0c565b6100d7600480360360208110156100d057600080fd5b5035610b12565b60405180868152602001806020018060200180602001858152602001848103845288818151815260200191508051906020019080838360005b83811015610128578181015183820152602001610110565b50505050905090810190601f1680156101555780820380516001836020036101000a031916815260200191505b50848103835287518152875160209182019189019080838360005b83811015610188578181015183820152602001610170565b50505050905090810190601f1680156101b55780820380516001836020036101000a031916815260200191505b50848103825286518152865160209182019188019080838360005b838110156101e85781810151838201526020016101d0565b50505050905090810190601f1680156102155780820380516001836020036101000a031916815260200191505b509850505050505050505060405180910390f35b6100a0610ce1565b6104e9600480360360a081101561024757600080fd5b810190602081018135600160201b81111561026157600080fd5b82018360208201111561027357600080fd5b803590602001918460018302840111600160201b8311171561029457600080fd5b91908080601f0160208091040260200160405190810160405280939291908181526020018383808284376000920191909152509295949360208101935035915050600160201b8111156102e657600080fd5b8201836020820111156102f857600080fd5b803590602001918460018302840111600160201b8311171561031957600080fd5b91908080601f0160208091040260200160405190810160405280939291908181526020018383808284376000920191909152509295949360208101935035915050600160201b81111561036b57600080fd5b82018360208201111561037d57600080fd5b803590602001918460018302840111600160201b8311171561039e57600080fd5b91908080601f0160208091040260200160405190810160405280939291908181526020018383808284376000920191909152509295949360208101935035915050600160201b8111156103f057600080fd5b82018360208201111561040257600080fd5b803590602001918460018302840111600160201b8311171561042357600080fd5b91908080601f0160208091040260200160405190810160405280939291908181526020018383808284376000920191909152509295949360208101935035915050600160201b81111561047557600080fd5b82018360208201111561048757600080fd5b803590602001918460018302840111600160201b831117156104a857600080fd5b91908080601f016020809104026020016040519081016040528093929190818152602001838380828437600092019190915250929550610ce7945050505050565b005b6104e96004803603606081101561050157600080fd5b810190602081018135600160201b81111561051b57600080fd5b82018360208201111561052d57600080fd5b803590602001918460018302840111600160201b8311171561054e57600080fd5b91908080601f0160208091040260200160405190810160405280939291908181526020018383808284376000920191909152509295949360208101935035915050600160201b8111156105a057600080fd5b8201836020820111156105b257600080fd5b803590602001918460018302840111600160201b831117156105d357600080fd5b91908080601f0160208091040260200160405190810160405280939291908181526020018383808284376000920191909152509295949360208101935035915050600160201b81111561062557600080fd5b82018360208201111561063757600080fd5b803590602001918460018302840111600160201b8311171561065857600080fd5b91908080601f01602080910402602001604051908101604052809392919081815260200183838082843760009201919091525092955061101c945050505050565b6106b6600480360360208110156106af57600080fd5b503561123e565b604051808581526020018060200180602001848152602001838103835286818151815260200191508051906020019080838360005b838110156107035781810151838201526020016106eb565b50505050905090810190601f1680156107305780820380516001836020036101000a031916815260200191505b50838103825285518152855160209182019187019080838360005b8381101561076357818101518382015260200161074b565b50505050905090810190601f1680156107905780820380516001836020036101000a031916815260200191505b50965050505050505060405180910390f35b6104e9600480360360408110156107b857600080fd5b810190602081018135600160201b8111156107d257600080fd5b8201836020820111156107e457600080fd5b803590602001918460018302840111600160201b8311171561080557600080fd5b91908080601f0160208091040260200160405190810160405280939291908181526020018383808284376000920191909152509295949360208101935035915050600160201b81111561085757600080fd5b82018360208201111561086957600080fd5b803590602001918460018302840111600160201b8311171561088a57600080fd5b91908080601f01602080910402602001604051908101604052809392919081815260200183838082843760009201919091525092955061137d945050505050565b6108e8600480360360208110156108e157600080fd5b503561150f565b60405180888152602001806020018060200180602001806020018060200187815260200186810386528c818151815260200191508051906020019080838360005b83811015610941578181015183820152602001610929565b50505050905090810190601f16801561096e5780820380516001836020036101000a031916815260200191505b5086810385528b5181528b516020918201918d019080838360005b838110156109a1578181015183820152602001610989565b50505050905090810190601f1680156109ce5780820380516001836020036101000a031916815260200191505b5086810384528a5181528a516020918201918c019080838360005b83811015610a015781810151838201526020016109e9565b50505050905090810190601f168015610a2e5780820380516001836020036101000a031916815260200191505b5086810383528951815289516020918201918b019080838360005b83811015610a61578181015183820152602001610a49565b50505050905090810190601f168015610a8e5780820380516001836020036101000a031916815260200191505b5086810382528851815288516020918201918a019080838360005b83811015610ac1578181015183820152602001610aa9565b50505050905090810190601f168015610aee5780820380516001836020036101000a031916815260200191505b509c5050505050505050505050505060405180910390f35b60015481565b60025481565b6005602090815260009182526040918290208054600180830180548651600293821615610100026000190190911692909204601f810186900486028301860190965285825291949293909290830182828015610baf5780601f10610b8457610100808354040283529160200191610baf565b820191906000526020600020905b815481529060010190602001808311610b9257829003601f168201915b50505060028085018054604080516020601f6000196101006001871615020190941695909504928301859004850281018501909152818152959695945090925090830182828015610c415780601f10610c1657610100808354040283529160200191610c41565b820191906000526020600020905b815481529060010190602001808311610c2457829003601f168201915b5050505060038301805460408051602060026001851615610100026000190190941693909304601f8101849004840282018401909252818152949594935090830182828015610cd15780601f10610ca657610100808354040283529160200191610cd1565b820191906000526020600020905b815481529060010190602001808311610cb457829003601f168201915b5050505050908060040154905085565b60005481565b6000805460019081018083556040805160e08101825282815260208082018b81528284018b9052606083018a90526080830189905260a083018890524260c0840152938652600381529190942084518155915180519293610d50939085019291909101906117fe565b5060408201518051610d6c9160028401916020909101906117fe565b5060608201518051610d889160038401916020909101906117fe565b5060808201518051610da49160048401916020909101906117fe565b5060a08201518051610dc09160058401916020909101906117fe565b5060c082015181600601559050507fb23a44ea66b4e7b517f362c2cfc57aa871fcdfc7482fd5ecb1aad2a9c6bef96360005486868686864260405180888152602001806020018060200180602001806020018060200187815260200186810386528c818151815260200191508051906020019080838360005b83811015610e51578181015183820152602001610e39565b50505050905090810190601f168015610e7e5780820380516001836020036101000a031916815260200191505b5086810385528b5181528b516020918201918d019080838360005b83811015610eb1578181015183820152602001610e99565b50505050905090810190601f168015610ede5780820380516001836020036101000a031916815260200191505b5086810384528a5181528a516020918201918c019080838360005b83811015610f11578181015183820152602001610ef9565b50505050905090810190601f168015610f3e5780820380516001836020036101000a031916815260200191505b5086810383528951815289516020918201918b019080838360005b83811015610f71578181015183820152602001610f59565b50505050905090810190601f168015610f9e5780820380516001836020036101000a031916815260200191505b5086810382528851815288516020918201918a019080838360005b83811015610fd1578181015183820152602001610fb9565b50505050905090810190601f168015610ffe5780820380516001836020036101000a031916815260200191505b509c5050505050505050505050505060405180910390a15050505050565b600280546001908101918290556040805160a0810182528381526020808201888152828401889052606083018790524260808401526000958652600582529290942081518155915180519194929361107a93908501929101906117fe565b50604082015180516110969160028401916020909101906117fe565b50606082015180516110b29160038401916020909101906117fe565b50608082015181600401559050507f77e3d3bb8dda62e43e54d0483f4dc83e423ac45e13a6e784ec8f0c8539b76c556002548484844260405180868152602001806020018060200180602001858152602001848103845288818151815260200191508051906020019080838360005b83811015611139578181015183820152602001611121565b50505050905090810190601f1680156111665780820380516001836020036101000a031916815260200191505b50848103835287518152875160209182019189019080838360005b83811015611199578181015183820152602001611181565b50505050905090810190601f1680156111c65780820380516001836020036101000a031916815260200191505b50848103825286518152865160209182019188019080838360005b838110156111f95781810151838201526020016111e1565b50505050905090810190601f1680156112265780820380516001836020036101000a031916815260200191505b509850505050505050505060405180910390a1505050565b6004602090815260009182526040918290208054600180830180548651600293821615610100026000190190911692909204601f8101869004860283018601909652858252919492939092908301828280156112db5780601f106112b0576101008083540402835291602001916112db565b820191906000526020600020905b8154815290600101906020018083116112be57829003601f168201915b50505060028085018054604080516020601f600019610100600187161502019094169590950492830185900485028101850190915281815295969594509092509083018282801561136d5780601f106113425761010080835404028352916020019161136d565b820191906000526020600020905b81548152906001019060200180831161135057829003601f168201915b5050505050908060030154905084565b600180548101808255604080516080810182528281526020808201878152828401879052426060840152600094855260048252929093208151815591518051919492936113cf938501929101906117fe565b50604082015180516113eb9160028401916020909101906117fe565b50606082015181600301559050507fc9a8f167d152087785281ce637eff30b0a27a6eebfb59f2559fbbc836ec9ad2f600154838342604051808581526020018060200180602001848152602001838103835286818151815260200191508051906020019080838360005b8381101561146d578181015183820152602001611455565b50505050905090810190601f16801561149a5780820380516001836020036101000a031916815260200191505b50838103825285518152855160209182019187019080838360005b838110156114cd5781810151838201526020016114b5565b50505050905090810190601f1680156114fa5780820380516001836020036101000a031916815260200191505b50965050505050505060405180910390a15050565b6003602090815260009182526040918290208054600180830180548651600293821615610100026000190190911692909204601f8101869004860283018601909652858252919492939092908301828280156115ac5780601f10611581576101008083540402835291602001916115ac565b820191906000526020600020905b81548152906001019060200180831161158f57829003601f168201915b50505060028085018054604080516020601f600019610100600187161502019094169590950492830185900485028101850190915281815295969594509092509083018282801561163e5780601f106116135761010080835404028352916020019161163e565b820191906000526020600020905b81548152906001019060200180831161162157829003601f168201915b5050505060038301805460408051602060026001851615610100026000190190941693909304601f81018490048402820184019092528181529495949350908301828280156116ce5780601f106116a3576101008083540402835291602001916116ce565b820191906000526020600020905b8154815290600101906020018083116116b157829003601f168201915b5050505060048301805460408051602060026001851615610100026000190190941693909304601f810184900484028201840190925281815294959493509083018282801561175e5780601f106117335761010080835404028352916020019161175e565b820191906000526020600020905b81548152906001019060200180831161174157829003601f168201915b5050505060058301805460408051602060026001851615610100026000190190941693909304601f81018490048402820184019092528181529495949350908301828280156117ee5780601f106117c3576101008083540402835291602001916117ee565b820191906000526020600020905b8154815290600101906020018083116117d157829003601f168201915b5050505050908060060154905087565b828054600181600116156101000203166002900490600052602060002090601f016020900481019282601f1061183f57805160ff191683800117855561186c565b8280016001018555821561186c579182015b8281111561186c578251825591602001919060010190611851565b5061187892915061187c565b5090565b61189691905b808211156118785760008155600101611882565b9056fea265627a7a723158204b899150b187963ee3a5ff41fab84c5bb0b4975fcfccb3c3628af69b8adb1fa764736f6c63430005100032",
  "source": "pragma solidity >=0.5.16 <0.9.0;\r\n\r\ncontract Licitaciones{\r\n  \r\n    uint public publicacionCount=0;\r\n    uint public adjudicacionCount=0;\r\n    uint public suscripcionCount=0;\r\n\r\n  struct Publicacion {\r\n    uint id;\r\n    string idExpediente;\r\n    string pbcg;\r\n    string pbcp;\r\n    string dipbcg;\r\n    string dipbcp;\r\n    uint timestamp;\r\n  }\r\n\r\n  struct Suscripcion {\r\n    uint id;\r\n    string idExpediente;\r\n    string convenio;\r\n    string garantia;\r\n    uint timestamp;\r\n  }\r\n\r\n  struct Adjudicacion {\r\n    uint id;\r\n    string idExpediente;\r\n    string disposicion;\r\n    uint timestamp;\r\n  }\r\n\r\n  mapping(uint => Publicacion) public publicaciones;\r\n\r\n  mapping(uint => Adjudicacion) public adjudicaciones;\r\n\r\n  mapping(uint => Suscripcion) public suscripciones;\r\n\r\n  event PublicacionCreated(\r\n    uint id,\r\n    string idExpediente,\r\n    string pbcg,\r\n    string pbcp,\r\n    string dipbcg,\r\n    string dipbcp,\r\n    uint timestamp\r\n  );\r\n\r\n  event SuscripcionCreated(\r\n    uint id,\r\n    string idExpediente,\r\n    string convenio,\r\n    string garantia,\r\n    uint timestamp\r\n  );\r\n\r\n  event AdjudicacionCreated(\r\n    uint id,\r\n    string idExpediente,\r\n    string disposicion,\r\n    uint timestamp\r\n  );\r\n\r\n  constructor() public {\r\n    createPublicacion(\"EE-Prueba-01\", \"prueba-pbcg\", \"prueba-pbcp\", \"prueba-dipbcg\", \"prueba-dipbcp\");\r\n    createSuscripcion(\"EE-Prueba-01\", \"prueba-convenio\", \"prueba-garantia\");\r\n    createAdjudicacion(\"EE-Prueba-01\", \"prueba-di\");\r\n  }\r\n\r\n  function createPublicacion(string memory _idExpediente, string memory _pbcg, string memory _pbcp, string memory _dipbcg, string memory _dipbcp) public {\r\n    publicacionCount ++;\r\n    publicaciones[publicacionCount] = Publicacion(publicacionCount, _idExpediente, _pbcg, _pbcp, _dipbcg, _dipbcp, block.timestamp);\r\n    emit PublicacionCreated(publicacionCount, _idExpediente, _pbcg, _pbcp, _dipbcg, _dipbcp, block.timestamp);\r\n  }\r\n\r\n  function createSuscripcion(string memory _idExpediente, string memory _convenio, string memory _garantia) public {\r\n    suscripcionCount ++;\r\n    suscripciones[suscripcionCount] = Suscripcion(suscripcionCount, _idExpediente, _convenio, _garantia, block.timestamp);\r\n    emit SuscripcionCreated(suscripcionCount, _idExpediente, _convenio, _garantia, block.timestamp);\r\n  }\r\n\r\n  function createAdjudicacion(string memory _idExpediente, string memory _disposicion) public {\r\n    adjudicacionCount ++;\r\n    adjudicaciones[adjudicacionCount] = Adjudicacion(adjudicacionCount, _idExpediente, _disposicion, block.timestamp);\r\n    emit AdjudicacionCreated(adjudicacionCount, _idExpediente, _disposicion, block.timestamp);\r\n  }\r\n\r\n}",
  "sourcePath": "D:\\workspace\\tfg-licitaciones\\contracts\\Licitaciones.sol",
  "compiler": {
    "name": "solc",
    "version": "0.5.16+commit.9c3226ce.Emscripten.clang"
  },
  "schemaVersion": "3.4.7",
  "updatedAt": "2022-05-24T20:20:05.021Z",
  "networkType": "ethereum",
  "devdoc": {
    "methods": {}
  },
  "userdoc": {
    "methods": {}
  }
}