{
  "contractName": "Licitaciones",
  "abi": [
    {
      "inputs": [],
      "payable": false,
      "stateMutability": "nonpayable",
      "type": "constructor"
    },
    {
      "anonymous": false,
      "inputs": [
        {
          "indexed": false,
          "internalType": "uint256",
          "name": "id",
          "type": "uint256"
        },
        {
          "indexed": false,
          "internalType": "string",
          "name": "idExpediente",
          "type": "string"
        },
        {
          "indexed": false,
          "internalType": "string",
          "name": "disposicion",
          "type": "string"
        },
        {
          "indexed": false,
          "internalType": "uint256",
          "name": "timestamp",
          "type": "uint256"
        }
      ],
      "name": "AdjudicacionCreated",
      "type": "event"
    },
    {
      "anonymous": false,
      "inputs": [
        {
          "indexed": false,
          "internalType": "uint256",
          "name": "id",
          "type": "uint256"
        },
        {
          "indexed": false,
          "internalType": "string",
          "name": "idExpediente",
          "type": "string"
        },
        {
          "indexed": false,
          "internalType": "string",
          "name": "disposicion",
          "type": "string"
        },
        {
          "indexed": false,
          "internalType": "uint256",
          "name": "timestamp",
          "type": "uint256"
        }
      ],
      "name": "AdjudicacionFound",
      "type": "event"
    },
    {
      "anonymous": false,
      "inputs": [
        {
          "indexed": false,
          "internalType": "uint256",
          "name": "id",
          "type": "uint256"
        },
        {
          "indexed": false,
          "internalType": "string",
          "name": "idExpediente",
          "type": "string"
        },
        {
          "indexed": false,
          "internalType": "string",
          "name": "comprobante",
          "type": "string"
        },
        {
          "indexed": false,
          "internalType": "uint256",
          "name": "timestamp",
          "type": "uint256"
        }
      ],
      "name": "OfertaCreated",
      "type": "event"
    },
    {
      "anonymous": false,
      "inputs": [
        {
          "indexed": false,
          "internalType": "uint256",
          "name": "id",
          "type": "uint256"
        },
        {
          "indexed": false,
          "internalType": "string",
          "name": "idExpediente",
          "type": "string"
        },
        {
          "indexed": false,
          "internalType": "string",
          "name": "comprobante",
          "type": "string"
        },
        {
          "indexed": false,
          "internalType": "uint256",
          "name": "timestamp",
          "type": "uint256"
        }
      ],
      "name": "OfertaFound",
      "type": "event"
    },
    {
      "anonymous": false,
      "inputs": [
        {
          "indexed": false,
          "internalType": "uint256",
          "name": "id",
          "type": "uint256"
        },
        {
          "indexed": false,
          "internalType": "string",
          "name": "idExpediente",
          "type": "string"
        },
        {
          "indexed": false,
          "internalType": "string",
          "name": "pbcg",
          "type": "string"
        },
        {
          "indexed": false,
          "internalType": "string",
          "name": "pbcp",
          "type": "string"
        },
        {
          "indexed": false,
          "internalType": "string",
          "name": "dipbcg",
          "type": "string"
        },
        {
          "indexed": false,
          "internalType": "string",
          "name": "dipbcp",
          "type": "string"
        },
        {
          "indexed": false,
          "internalType": "uint256",
          "name": "timestamp",
          "type": "uint256"
        }
      ],
      "name": "PublicacionCreated",
      "type": "event"
    },
    {
      "anonymous": false,
      "inputs": [
        {
          "indexed": false,
          "internalType": "uint256",
          "name": "id",
          "type": "uint256"
        },
        {
          "indexed": false,
          "internalType": "string",
          "name": "idExpediente",
          "type": "string"
        },
        {
          "indexed": false,
          "internalType": "string",
          "name": "pbcg",
          "type": "string"
        },
        {
          "indexed": false,
          "internalType": "string",
          "name": "pbcp",
          "type": "string"
        },
        {
          "indexed": false,
          "internalType": "string",
          "name": "dipbcg",
          "type": "string"
        },
        {
          "indexed": false,
          "internalType": "string",
          "name": "dipbcp",
          "type": "string"
        },
        {
          "indexed": false,
          "internalType": "uint256",
          "name": "timestamp",
          "type": "uint256"
        }
      ],
      "name": "PublicacionFound",
      "type": "event"
    },
    {
      "constant": true,
      "inputs": [],
      "name": "adjudicacionCount",
      "outputs": [
        {
          "internalType": "uint256",
          "name": "",
          "type": "uint256"
        }
      ],
      "payable": false,
      "stateMutability": "view",
      "type": "function"
    },
    {
      "constant": true,
      "inputs": [
        {
          "internalType": "uint256",
          "name": "",
          "type": "uint256"
        }
      ],
      "name": "adjudicaciones",
      "outputs": [
        {
          "internalType": "uint256",
          "name": "id",
          "type": "uint256"
        },
        {
          "internalType": "string",
          "name": "idExpediente",
          "type": "string"
        },
        {
          "internalType": "string",
          "name": "disposicion",
          "type": "string"
        },
        {
          "internalType": "uint256",
          "name": "timestamp",
          "type": "uint256"
        }
      ],
      "payable": false,
      "stateMutability": "view",
      "type": "function"
    },
    {
      "constant": true,
      "inputs": [],
      "name": "ofertaCount",
      "outputs": [
        {
          "internalType": "uint256",
          "name": "",
          "type": "uint256"
        }
      ],
      "payable": false,
      "stateMutability": "view",
      "type": "function"
    },
    {
      "constant": true,
      "inputs": [
        {
          "internalType": "uint256",
          "name": "",
          "type": "uint256"
        }
      ],
      "name": "ofertas",
      "outputs": [
        {
          "internalType": "uint256",
          "name": "id",
          "type": "uint256"
        },
        {
          "internalType": "string",
          "name": "idExpediente",
          "type": "string"
        },
        {
          "internalType": "string",
          "name": "comprobante",
          "type": "string"
        },
        {
          "internalType": "uint256",
          "name": "timestamp",
          "type": "uint256"
        }
      ],
      "payable": false,
      "stateMutability": "view",
      "type": "function"
    },
    {
      "constant": true,
      "inputs": [],
      "name": "publicacionCount",
      "outputs": [
        {
          "internalType": "uint256",
          "name": "",
          "type": "uint256"
        }
      ],
      "payable": false,
      "stateMutability": "view",
      "type": "function"
    },
    {
      "constant": true,
      "inputs": [
        {
          "internalType": "uint256",
          "name": "",
          "type": "uint256"
        }
      ],
      "name": "publicaciones",
      "outputs": [
        {
          "internalType": "uint256",
          "name": "id",
          "type": "uint256"
        },
        {
          "internalType": "string",
          "name": "idExpediente",
          "type": "string"
        },
        {
          "internalType": "string",
          "name": "pbcg",
          "type": "string"
        },
        {
          "internalType": "string",
          "name": "pbcp",
          "type": "string"
        },
        {
          "internalType": "string",
          "name": "dipbcg",
          "type": "string"
        },
        {
          "internalType": "string",
          "name": "dipbcp",
          "type": "string"
        },
        {
          "internalType": "uint256",
          "name": "timestamp",
          "type": "uint256"
        }
      ],
      "payable": false,
      "stateMutability": "view",
      "type": "function"
    },
    {
      "constant": false,
      "inputs": [
        {
          "internalType": "string",
          "name": "_idExpediente",
          "type": "string"
        },
        {
          "internalType": "string",
          "name": "_pbcg",
          "type": "string"
        },
        {
          "internalType": "string",
          "name": "_pbcp",
          "type": "string"
        },
        {
          "internalType": "string",
          "name": "_dipbcg",
          "type": "string"
        },
        {
          "internalType": "string",
          "name": "_dipbcp",
          "type": "string"
        }
      ],
      "name": "createPublicacion",
      "outputs": [],
      "payable": false,
      "stateMutability": "nonpayable",
      "type": "function"
    },
    {
      "constant": false,
      "inputs": [
        {
          "internalType": "string",
          "name": "_idExpediente",
          "type": "string"
        },
        {
          "internalType": "string",
          "name": "_comprobante",
          "type": "string"
        }
      ],
      "name": "createOferta",
      "outputs": [],
      "payable": false,
      "stateMutability": "nonpayable",
      "type": "function"
    },
    {
      "constant": false,
      "inputs": [
        {
          "internalType": "string",
          "name": "_idExpediente",
          "type": "string"
        },
        {
          "internalType": "string",
          "name": "_disposicion",
          "type": "string"
        }
      ],
      "name": "createAdjudicacion",
      "outputs": [],
      "payable": false,
      "stateMutability": "nonpayable",
      "type": "function"
    }
  ],
  "bytecode": "0x608060405260008055600060015560006002553480156200001f57600080fd5b50620000e96040518060400160405280600c81526020016b45452d5072756562612d303160a01b8152506040518060400160405280600b81526020016a7072756562612d7062636760a81b8152506040518060400160405280600b81526020016a07072756562612d706263760ac1b8152506040518060400160405280600d81526020016c7072756562612d64697062636760981b8152506040518060400160405280600d81526020016c07072756562612d64697062637609c1b815250620001a660201b60201c565b620001496040518060400160405280600c81526020016b45452d5072756562612d303160a01b815250604051806040016040528060128152602001717072756562612d636f6d70726f62616e746560701b815250620004f460201b60201c565b620001a06040518060400160405280600c81526020016b45452d5072756562612d303160a01b815250604051806040016040528060098152602001687072756562612d646960b81b8152506200069060201b60201c565b6200082f565b6000805460019081018083556040805160e08101825282815260208082018b81528284018b9052606083018a90526080830189905260a083018890524260c084015293865260038152919094208451815591518051929362000211939085019291909101906200078a565b50604082015180516200022f9160028401916020909101906200078a565b50606082015180516200024d9160038401916020909101906200078a565b50608082015180516200026b9160048401916020909101906200078a565b5060a08201518051620002899160058401916020909101906200078a565b5060c082015181600601559050507fb23a44ea66b4e7b517f362c2cfc57aa871fcdfc7482fd5ecb1aad2a9c6bef96360005486868686864260405180888152602001806020018060200180602001806020018060200187815260200186810386528c818151815260200191508051906020019080838360005b838110156200031c57818101518382015260200162000302565b50505050905090810190601f1680156200034a5780820380516001836020036101000a031916815260200191505b5086810385528b5181528b516020918201918d019080838360005b838110156200037f57818101518382015260200162000365565b50505050905090810190601f168015620003ad5780820380516001836020036101000a031916815260200191505b5086810384528a5181528a516020918201918c019080838360005b83811015620003e2578181015183820152602001620003c8565b50505050905090810190601f168015620004105780820380516001836020036101000a031916815260200191505b5086810383528951815289516020918201918b019080838360005b83811015620004455781810151838201526020016200042b565b50505050905090810190601f168015620004735780820380516001836020036101000a031916815260200191505b5086810382528851815288516020918201918a019080838360005b83811015620004a85781810151838201526020016200048e565b50505050905090810190601f168015620004d65780820380516001836020036101000a031916815260200191505b509c5050505050505050505050505060405180910390a15050505050565b6001805481018082556040805160808101825282815260208082018781528284018790524260608401526000948552600482529290932081518155915180519194929362000548938501929101906200078a565b5060408201518051620005669160028401916020909101906200078a565b50606082015181600301559050507fe4be38e9392d55931d5510b65e9174840a04d3338cc5de2bceffe9b5ad125221600154838342604051808581526020018060200180602001848152602001838103835286818151815260200191508051906020019080838360005b83811015620005ea578181015183820152602001620005d0565b50505050905090810190601f168015620006185780820380516001836020036101000a031916815260200191505b50838103825285518152855160209182019187019080838360005b838110156200064d57818101518382015260200162000633565b50505050905090810190601f1680156200067b5780820380516001836020036101000a031916815260200191505b50965050505050505060405180910390a15050565b6002805460019081019182905560408051608081018252838152602080820187815282840187905242606084015260009586526005825292909420815181559151805191949293620006e993908501929101906200078a565b5060408201518051620007079160028401916020909101906200078a565b50606082015181600301559050507fc9a8f167d152087785281ce637eff30b0a27a6eebfb59f2559fbbc836ec9ad2f6002548383426040518085815260200180602001806020018481526020018381038352868181518152602001915080519060200190808383600083811015620005ea578181015183820152602001620005d0565b828054600181600116156101000203166002900490600052602060002090601f016020900481019282601f10620007cd57805160ff1916838001178555620007fd565b82800160010185558215620007fd579182015b82811115620007fd578251825591602001919060010190620007e0565b506200080b9291506200080f565b5090565b6200082c91905b808211156200080b576000815560010162000816565b90565b61146c806200083f6000396000f3fe608060405234801561001057600080fd5b50600436106100935760003560e01c80639549c361116100665780639549c361146102ee578063a03aaabe146105a6578063aa9deef7146105ae578063acb9cca2146105cb578063bfe7dbf3146106f457610093565b80630f956a3d146100985780632c55bcce146101c35780633f1b116c146101dd57806356afff7c146101e5575b600080fd5b6101c1600480360360408110156100ae57600080fd5b810190602081018135600160201b8111156100c857600080fd5b8201836020820111156100da57600080fd5b803590602001918460018302840111600160201b831117156100fb57600080fd5b91908080601f0160208091040260200160405190810160405280939291908181526020018383808284376000920191909152509295949360208101935035915050600160201b81111561014d57600080fd5b82018360208201111561015f57600080fd5b803590602001918460018302840111600160201b8311171561018057600080fd5b91908080601f01602080910402602001604051908101604052809392919081815260200183838082843760009201919091525092955061092f945050505050565b005b6101cb610ac1565b60408051918252519081900360200190f35b6101cb610ac7565b610202600480360360208110156101fb57600080fd5b5035610acd565b604051808581526020018060200180602001848152602001838103835286818151815260200191508051906020019080838360005b8381101561024f578181015183820152602001610237565b50505050905090810190601f16801561027c5780820380516001836020036101000a031916815260200191505b50838103825285518152855160209182019187019080838360005b838110156102af578181015183820152602001610297565b50505050905090810190601f1680156102dc5780820380516001836020036101000a031916815260200191505b50965050505050505060405180910390f35b6101c1600480360360a081101561030457600080fd5b810190602081018135600160201b81111561031e57600080fd5b82018360208201111561033057600080fd5b803590602001918460018302840111600160201b8311171561035157600080fd5b91908080601f0160208091040260200160405190810160405280939291908181526020018383808284376000920191909152509295949360208101935035915050600160201b8111156103a357600080fd5b8201836020820111156103b557600080fd5b803590602001918460018302840111600160201b831117156103d657600080fd5b91908080601f0160208091040260200160405190810160405280939291908181526020018383808284376000920191909152509295949360208101935035915050600160201b81111561042857600080fd5b82018360208201111561043a57600080fd5b803590602001918460018302840111600160201b8311171561045b57600080fd5b91908080601f0160208091040260200160405190810160405280939291908181526020018383808284376000920191909152509295949360208101935035915050600160201b8111156104ad57600080fd5b8201836020820111156104bf57600080fd5b803590602001918460018302840111600160201b831117156104e057600080fd5b91908080601f0160208091040260200160405190810160405280939291908181526020018383808284376000920191909152509295949360208101935035915050600160201b81111561053257600080fd5b82018360208201111561054457600080fd5b803590602001918460018302840111600160201b8311171561056557600080fd5b91908080601f016020809104026020016040519081016040528093929190818152602001838380828437600092019190915250929550610c0c945050505050565b6101cb610f41565b610202600480360360208110156105c457600080fd5b5035610f47565b6101c1600480360360408110156105e157600080fd5b810190602081018135600160201b8111156105fb57600080fd5b82018360208201111561060d57600080fd5b803590602001918460018302840111600160201b8311171561062e57600080fd5b91908080601f0160208091040260200160405190810160405280939291908181526020018383808284376000920191909152509295949360208101935035915050600160201b81111561068057600080fd5b82018360208201111561069257600080fd5b803590602001918460018302840111600160201b831117156106b357600080fd5b91908080601f016020809104026020016040519081016040528093929190818152602001838380828437600092019190915250929550610fb9945050505050565b6107116004803603602081101561070a57600080fd5b50356110ad565b60405180888152602001806020018060200180602001806020018060200187815260200186810386528c818151815260200191508051906020019080838360005b8381101561076a578181015183820152602001610752565b50505050905090810190601f1680156107975780820380516001836020036101000a031916815260200191505b5086810385528b5181528b516020918201918d019080838360005b838110156107ca5781810151838201526020016107b2565b50505050905090810190601f1680156107f75780820380516001836020036101000a031916815260200191505b5086810384528a5181528a516020918201918c019080838360005b8381101561082a578181015183820152602001610812565b50505050905090810190601f1680156108575780820380516001836020036101000a031916815260200191505b5086810383528951815289516020918201918b019080838360005b8381101561088a578181015183820152602001610872565b50505050905090810190601f1680156108b75780820380516001836020036101000a031916815260200191505b5086810382528851815288516020918201918a019080838360005b838110156108ea5781810151838201526020016108d2565b50505050905090810190601f1680156109175780820380516001836020036101000a031916815260200191505b509c5050505050505050505050505060405180910390f35b600180548101808255604080516080810182528281526020808201878152828401879052426060840152600094855260048252929093208151815591518051919492936109819385019291019061139c565b506040820151805161099d91600284019160209091019061139c565b50606082015181600301559050507fe4be38e9392d55931d5510b65e9174840a04d3338cc5de2bceffe9b5ad125221600154838342604051808581526020018060200180602001848152602001838103835286818151815260200191508051906020019080838360005b83811015610a1f578181015183820152602001610a07565b50505050905090810190601f168015610a4c5780820380516001836020036101000a031916815260200191505b50838103825285518152855160209182019187019080838360005b83811015610a7f578181015183820152602001610a67565b50505050905090810190601f168015610aac5780820380516001836020036101000a031916815260200191505b50965050505050505060405180910390a15050565b60025481565b60005481565b6004602090815260009182526040918290208054600180830180548651600293821615610100026000190190911692909204601f810186900486028301860190965285825291949293909290830182828015610b6a5780601f10610b3f57610100808354040283529160200191610b6a565b820191906000526020600020905b815481529060010190602001808311610b4d57829003601f168201915b50505060028085018054604080516020601f6000196101006001871615020190941695909504928301859004850281018501909152818152959695945090925090830182828015610bfc5780601f10610bd157610100808354040283529160200191610bfc565b820191906000526020600020905b815481529060010190602001808311610bdf57829003601f168201915b5050505050908060030154905084565b6000805460019081018083556040805160e08101825282815260208082018b81528284018b9052606083018a90526080830189905260a083018890524260c0840152938652600381529190942084518155915180519293610c759390850192919091019061139c565b5060408201518051610c9191600284019160209091019061139c565b5060608201518051610cad91600384019160209091019061139c565b5060808201518051610cc991600484019160209091019061139c565b5060a08201518051610ce591600584019160209091019061139c565b5060c082015181600601559050507fb23a44ea66b4e7b517f362c2cfc57aa871fcdfc7482fd5ecb1aad2a9c6bef96360005486868686864260405180888152602001806020018060200180602001806020018060200187815260200186810386528c818151815260200191508051906020019080838360005b83811015610d76578181015183820152602001610d5e565b50505050905090810190601f168015610da35780820380516001836020036101000a031916815260200191505b5086810385528b5181528b516020918201918d019080838360005b83811015610dd6578181015183820152602001610dbe565b50505050905090810190601f168015610e035780820380516001836020036101000a031916815260200191505b5086810384528a5181528a516020918201918c019080838360005b83811015610e36578181015183820152602001610e1e565b50505050905090810190601f168015610e635780820380516001836020036101000a031916815260200191505b5086810383528951815289516020918201918b019080838360005b83811015610e96578181015183820152602001610e7e565b50505050905090810190601f168015610ec35780820380516001836020036101000a031916815260200191505b5086810382528851815288516020918201918a019080838360005b83811015610ef6578181015183820152602001610ede565b50505050905090810190601f168015610f235780820380516001836020036101000a031916815260200191505b509c5050505050505050505050505060405180910390a15050505050565b60015481565b6005602090815260009182526040918290208054600180830180548651600293821615610100026000190190911692909204601f810186900486028301860190965285825291949293909290830182828015610b6a5780601f10610b3f57610100808354040283529160200191610b6a565b6002805460019081019182905560408051608081018252838152602080820187815282840187905242606084015260009586526005825292909420815181559151805191949293611010939085019291019061139c565b506040820151805161102c91600284019160209091019061139c565b50606082015181600301559050507fc9a8f167d152087785281ce637eff30b0a27a6eebfb59f2559fbbc836ec9ad2f6002548383426040518085815260200180602001806020018481526020018381038352868181518152602001915080519060200190808383600083811015610a1f578181015183820152602001610a07565b6003602090815260009182526040918290208054600180830180548651600293821615610100026000190190911692909204601f81018690048602830186019096528582529194929390929083018282801561114a5780601f1061111f5761010080835404028352916020019161114a565b820191906000526020600020905b81548152906001019060200180831161112d57829003601f168201915b50505060028085018054604080516020601f60001961010060018716150201909416959095049283018590048502810185019091528181529596959450909250908301828280156111dc5780601f106111b1576101008083540402835291602001916111dc565b820191906000526020600020905b8154815290600101906020018083116111bf57829003601f168201915b5050505060038301805460408051602060026001851615610100026000190190941693909304601f810184900484028201840190925281815294959493509083018282801561126c5780601f106112415761010080835404028352916020019161126c565b820191906000526020600020905b81548152906001019060200180831161124f57829003601f168201915b5050505060048301805460408051602060026001851615610100026000190190941693909304601f81018490048402820184019092528181529495949350908301828280156112fc5780601f106112d1576101008083540402835291602001916112fc565b820191906000526020600020905b8154815290600101906020018083116112df57829003601f168201915b5050505060058301805460408051602060026001851615610100026000190190941693909304601f810184900484028201840190925281815294959493509083018282801561138c5780601f106113615761010080835404028352916020019161138c565b820191906000526020600020905b81548152906001019060200180831161136f57829003601f168201915b5050505050908060060154905087565b828054600181600116156101000203166002900490600052602060002090601f016020900481019282601f106113dd57805160ff191683800117855561140a565b8280016001018555821561140a579182015b8281111561140a5782518255916020019190600101906113ef565b5061141692915061141a565b5090565b61143491905b808211156114165760008155600101611420565b9056fea265627a7a723158208206c1e8e01f523a14117acb7c6be657e7d5a1fcff38f54c84afc7bac5fb83c364736f6c63430005100032",
  "source": "pragma solidity >=0.5.16 <0.9.0;\r\n\r\ncontract Licitaciones{\r\n    uint public publicacionCount=0;\r\n    uint public ofertaCount=0;\r\n    uint public adjudicacionCount=0;\r\n\r\n  struct Publicacion {\r\n    uint id;\r\n    string idExpediente;\r\n    string pbcg;\r\n    string pbcp;\r\n    string dipbcg;\r\n    string dipbcp;\r\n    uint timestamp;\r\n  }\r\n\r\n  struct Oferta {\r\n    uint id;\r\n    string idExpediente;\r\n    string comprobante;\r\n    uint timestamp;\r\n  }\r\n\r\n  struct Adjudicacion {\r\n    uint id;\r\n    string idExpediente;\r\n    string disposicion;\r\n    uint timestamp;\r\n  }\r\n\r\n  mapping(uint => Publicacion) public publicaciones;\r\n\r\n  mapping(uint => Oferta) public ofertas;\r\n\r\n  mapping(uint => Adjudicacion) public adjudicaciones;\r\n\r\n  event PublicacionCreated(\r\n    uint id,\r\n    string idExpediente,\r\n    string pbcg,\r\n    string pbcp,\r\n    string dipbcg,\r\n    string dipbcp,\r\n    uint timestamp\r\n  );\r\n\r\n  event OfertaCreated(\r\n    uint id,\r\n    string idExpediente,\r\n    string comprobante,\r\n    uint timestamp\r\n  );\r\n\r\n  event AdjudicacionCreated(\r\n    uint id,\r\n    string idExpediente,\r\n    string disposicion,\r\n    uint timestamp\r\n  );\r\n\r\n  event PublicacionFound(\r\n    uint id,\r\n    string idExpediente,\r\n    string pbcg,\r\n    string pbcp,\r\n    string dipbcg,\r\n    string dipbcp,\r\n    uint timestamp\r\n  );\r\n\r\n  event OfertaFound(\r\n    uint id,\r\n    string idExpediente,\r\n    string comprobante,\r\n    uint timestamp\r\n  );\r\n\r\n  event AdjudicacionFound(\r\n    uint id,\r\n    string idExpediente,\r\n    string disposicion,\r\n    uint timestamp\r\n  );\r\n\r\n  constructor() public {\r\n    createPublicacion(\"EE-Prueba-01\", \"prueba-pbcg\", \"prueba-pbcp\", \"prueba-dipbcg\", \"prueba-dipbcp\");\r\n    createOferta(\"EE-Prueba-01\", \"prueba-comprobante\");\r\n    createAdjudicacion(\"EE-Prueba-01\", \"prueba-di\");\r\n  }\r\n\r\n  function createPublicacion(string memory _idExpediente, string memory _pbcg, string memory _pbcp, string memory _dipbcg, string memory _dipbcp) public {\r\n    publicacionCount ++;\r\n    publicaciones[publicacionCount] = Publicacion(publicacionCount, _idExpediente, _pbcg, _pbcp, _dipbcg, _dipbcp, block.timestamp);\r\n    emit PublicacionCreated(publicacionCount, _idExpediente, _pbcg, _pbcp, _dipbcg, _dipbcp, block.timestamp);\r\n  }\r\n\r\n  function createOferta(string memory _idExpediente, string memory _comprobante) public {\r\n    ofertaCount ++;\r\n    ofertas[ofertaCount] = Oferta(ofertaCount, _idExpediente, _comprobante, block.timestamp);\r\n    emit OfertaCreated(ofertaCount, _idExpediente, _comprobante, block.timestamp);\r\n  }\r\n\r\n  function createAdjudicacion(string memory _idExpediente, string memory _disposicion) public {\r\n    adjudicacionCount ++;\r\n    adjudicaciones[adjudicacionCount] = Adjudicacion(adjudicacionCount, _idExpediente, _disposicion, block.timestamp);\r\n    emit AdjudicacionCreated(adjudicacionCount, _idExpediente, _disposicion, block.timestamp);\r\n  }\r\n\r\n}",
  "sourcePath": "D:\\workspace\\tfg-licitaciones\\contracts\\Licitaciones.sol",
  "compiler": {
    "name": "solc",
    "version": "0.5.16+commit.9c3226ce.Emscripten.clang"
  },
  "schemaVersion": "3.4.7",
  "updatedAt": "2022-05-06T04:43:16.674Z",
  "networkType": "ethereum",
  "devdoc": {
    "methods": {}
  },
  "userdoc": {
    "methods": {}
  }
}